:020000040800F2
:1000000018040020490100080D030008F30200084D
:1000100009030008910100085B0D000800000000C2
:1000200000000000000000000000000005090008BA
:10003000950100080000000095030008450A00082B
:100040006301000863010008630100086301000800
:1000500063010008630100086301000863010008F0
:1000600063010008630100086301000863010008E0
:1000700063010008630100086301000863010008D0
:1000800063010008630100086301000863010008C0
:1000900063010008630100086301000863010008B0
:1000A00063010008630100086301000863010008A0
:1000B0006301000863010008630100086301000890
:1000C0006301000863010008630100086301000880
:1000D00063010008A90A0008630100086301000821
:1000E0006301000863010008630100086301000860
:1000F0006301000863010008630100086301000850
:10010000630100086301000863010008630100083F
:10011000630100086301000863010008630100082F
:10012000630100086301000863010008630100081F
:10013000DFF810D000F01AF800480047D50D00088D
:10014000AFF30080180400200648804706480047A7
:10015000FEE7FEE7FEE7FEE7FEE7FEE7FEE7FEE777
:10016000FEE7FEE7490A000831010008064C074D8A
:1001700006E0E06840F0010394E807009847103477
:10018000AC42F6D3FFF7D8FF040E0008240E000897
:1001900000BFFEE77047000070B504460C4800F051
:1001A00027FC002508E000BF4FF0E020006900F4C4
:1001B00080300028F8D06D1CA542F4D34FF0E02029
:1001C000006920F001004FF0E021086170BD0000DF
:1001D000401901002DE9F0410246002500260020CB
:1001E00000230024002791F803C00CF00F0591F8BC
:1001F00003C00CF0100CBCF1000F03D091F802C04A
:100200004CEA050591F800C0BCF1000F31D014682C
:1002100000202BE04FF0010C0CFA00F3B1F800C005
:100220000CEA03069E4220D183004FF00F0C0CFA1B
:1002300003F7BC4305FA03FC4CEA040491F803C03D
:10024000BCF1280F06D14FF0010C0CFA00FCC2F8EB
:1002500014C00AE091F803C0BCF1480F05D14FF07B
:10026000010C0CFA00FCC2F810C0401C0828D1D3C5
:100270001460B1F800C0BCF1FF0F34DD54680020F9
:100280002EE000F1080C4FF0010808FA0CF3B1F869
:1002900000C00CEA03069E4221D183004FF00F0CF0
:1002A0000CFA03F7BC4305FA03FC4CEA040491F88A
:1002B00003C0BCF1280F05D100F1080C08FA0CF8B6
:1002C000C2F8148091F803C0BCF1480F07D100F1C7
:1002D000080C4FF0010808FA0CF8C2F81080401C16
:1002E0000828CED35460BDE8F081416170470161B8
:1002F000704700BFFEE7000010B508210148FFF776
:10030000F6FF10BD001C014000BFFEE77047000073
:1003100070B5002100230F22C47804B3154C246863
:1003200004F4E064C4F5E064210AC1F10403CA40A6
:10033000447804FA03F184781440214309010E4CF7
:100340000678A155047804F01F050124AC40057817
:100350006D11AD0005F1E025C5F8004109E0047814
:1003600004F01F050124AC40044D0678761145F8D1
:10037000264070BD0CED00E000E400E080E100E00C
:1003800002490143024A1160704700000000FA056B
:100390000CED00E07047000029B1064A9269024363
:1003A000044B9A6104E0034A92698243014B9A61CB
:1003B000704700000010024030B5002100220024E8
:1003C00000232D4D6D6805F00C0121B1042905D0E5
:1003D000082923D105E0294D056022E0274D05605D
:1003E0001FE0254D6D6805F47012234D6D6805F40E
:1003F0008034022505EB92421CB9214D554305601E
:100400000BE01D4D6D6805F400351DB11C4D5543C5
:10041000056002E0194D5543056002E0174D056087
:1004200000BF00BF144D6D6805F0F0010909154DBE
:100430006B5C0568DD4045600F4D6D6805F4E0615B
:10044000090A104D6B5C4568DD4085600A4D6D689A
:1004500005F46051C90A0B4D6B5C4568DD40C56011
:10046000054D6D6805F44041890B074D6B5CC5680F
:10047000B5FBF3F5056130BD0010024000127A00B3
:1004800000093D00000000201000002021B102887A
:1004900042F04002028004E002884FF6BF731A4027
:1004A0000280704700B587B001210803FFF774FF91
:1004B00001210420FFF770FF01218020FFF76CFF6E
:1004C00018208DF80700A020ADF8040003208DF857
:1004D000060001A91A48FFF77DFE10208DF80700DD
:1004E0000F20ADF8040003208DF8060001A915487F
:1004F000FFF770FE0020ADF81400ADF81000ADF865
:100500000E000720ADF818000020ADF80C00ADF883
:100510000800ADF816004FF48270ADF80A004FF4F1
:100520000070ADF8120002A9074800F02DF8012173
:100530000548FFF7ABFF00F05DF807B000BD000015
:1005400000080140001C01400030014010B50421AA
:100550000148FFF7CAFE10BD001C014010B5042180
:100560000148FFF7C4FE10BD001C014002460020F8
:1005700013890B400BB1012000E0002070470146B9
:10058000888970478181704710B50022028802F483
:1005900041520B884C8823438C882343CC882343C7
:1005A0000C8923434C8923438C892343CC892343DF
:1005B0001A430280838B4FF2FF74234083830B8A9C
:1005C000038210BD10B501210148FFF78EFE10BD5A
:1005D000001C014010B501210148FFF788FE10BD45
:1005E000001C014010B502210148FFF77EFE10BD3E
:1005F000001C014010B502210148FFF778FE10BD34
:10060000001C014010B5044600BF02210A48FFF754
:10061000ADFF0128F9D121460748FFF7B3FF00BF1E
:1006200001210548FFF7A2FF0128F9D10248FFF791
:10063000A6FFC0B210BD000000300140F8B504466E
:10064000A92340F23F120021084600F0B7F8FFF757
:10065000C9FF002511E000260BE020128DF80000F4
:10066000E0B28DF801000221684600F01CF9701C10
:1006700086B2AA2EF1DB681C85B2B5F5A07FEADB55
:10068000FFF7B8FFF8BD00001FB51920FFF784FD84
:10069000FFF798FF1920FFF77FFDFFF79BFF322040
:1006A000FFF77AFD3A2000F0F2F8552000F01EF92D
:1006B000B22000F0ECF837A103C9CDE90201052111
:1006C00002A800F0F0F8032000F0C1F8B72000F015
:1006D000DEF8352000F00AF9BB2000F0D8F8192028
:1006E00000F004F9C02000F0D2F82C2000F0FEF851
:1006F000C22000F0CCF8012000F0F8F8C32000F090
:10070000C6F8122000F0F2F8C42000F0C0F8202053
:1007100000F0ECF8C62000F0BAF80F2000F0E6F880
:10072000D02000F0B4F8A42000F0E0F8A12000F000
:10073000DDF8E02000F0ABF818A090E80E00C068EB
:100740008DE80E0003900E21684600F0ACF8E12021
:1007500000F09DF815A3D3E901021968DB6801AC2C
:100760000DC400910E21684600F09DF8212000F094
:100770008EF8112000F08BF8132000F088F8292063
:1007800000F085F83220FFF707FD0020FFF756FF45
:100790001FBD00000C0C003333000000D0040D110D
:1007A000132B3F544C180D0B1F230000D0040C11C9
:1007B000132C3F44512F1F1F202300002DE9F84F19
:1007C00004460E4615461F46FFF70CFF1FFA84F835
:1007D0001FFA85F906F123001FFA80FA07F12300BA
:1007E0001FFA80FB2A2000F052F84FEA28208DF8EB
:1007F000000008F0FF008DF801004FEA29208DF875
:10080000020009F0FF008DF803000421684600F0A3
:100810004AF82B2000F03BF84FEA2A208DF8000020
:100820000AF0FF008DF801004FEA2B208DF802003E
:100830000BF0FF008DF803000421684600F033F848
:100840002C2000F024F8FFF7D5FEBDE8F88F10B596
:100850000446362000F01BF834B1012C08D0022CDD
:100860000AD0032C10D10BE0C02000F03FF80CE0C0
:10087000A02000F03BF808E0002000F037F804E08A
:10088000602000F033F800E000BF00BF10BD10B5DD
:100890000446FFF7A7FEFFF759FE2046FFF7B2FE1A
:1008A000FFF7A8FE10BD2DE9F04105460C46FFF705
:1008B00099FEFFF753FE13E0B4F5803F02D34FF6E5
:1008C000FF7000E0204686B2002704E0E85DFFF7F5
:1008D00099FE781C87B2A742F8D33544A41B00BF09
:1008E000002CE9D1FFF786FEBDE8F08110B5044683
:1008F000FFF778FEFFF732FE2046FFF783FEFFF793
:1009000079FE10BD704710B500F002F810BD000070
:100910000CB50020019000903348006840F480300E
:100920003149086000BF3048006800F40030009092
:100930000198401C0190009818B90198B0F5A06F7B
:10094000F1D12948006800F4003010B10120009076
:1009500001E0002000900098012843D1234800685E
:1009600040F01000214908600846006820F00300AC
:1009700008600846006840F0020008601A484068B5
:10098000194948600846406848600846406840F495
:10099000806048600846406820F47C104860084643
:1009A000406840F4E81048600846006840F08070F5
:1009B000086000BF0C48006800F000700028F9D003
:1009C0000948406820F0030007494860084640682D
:1009D00040F00200486000BF0348406800F00C008F
:1009E0000828F9D10CBD0000001002400020024090
:1009F00030B50146B1F1807F01D3012030BD21F037
:100A00007F40401E4FF0E022506150170F22002817
:100A100007DA13071D0E094B00F00F04241F1D55A4
:100A200003E013071C0E064B1C5400BF00204FF0C0
:100A3000E0229061072010610020DFE718ED00E060
:100A400000E400E07047000010B51348006840F073
:100A500001001149086008464068104908400E49E5
:100A60004860084600680E4908400B49086008467F
:100A7000006820F4802008600846406820F4FE00EA
:100A800048604FF41F008860FFF73DFF4FF00060A3
:100A90000449086010BD0000001002400000FFF88B
:100AA000FFFFF6FE08ED00E010B540F225510948C1
:100AB00000F08FF838B1074800F046F9C4B221467B
:100AC000044800F046F940F22551024800F004F8CD
:100AD00010BD00000038014001F40072B2F5007F43
:100AE00000D100BFCA430280704721B1828942F41D
:100AF0000052828104E082894DF6FF731A408281A0
:100B00007047000000B587B001218803FFF744FC5F
:100B100001210420FFF740FC18208DF80B004FF452
:100B20000070ADF8080003208DF80A0002A92048E3
:100B3000FFF750FB04208DF80B000002ADF8080011
:100B400003208DF80A0002A91948FFF743FB4FF470
:100B5000E13003900020ADF818000C20ADF816002D
:100B60000020ADF81400ADF81200ADF8100003A994
:100B7000104800F07DF84FF4A060FFF701FC25203D
:100B80008DF8040001208DF807008DF805008DF820
:100B9000060001A8FFF7BCFB012240F225510548E1
:100BA00000F041F801210348FFF79FFF07B000BDA7
:100BB000000801400038014002460020B1F5007FE6
:100BC00000D100BF13880B400BB1012000E00020D2
:100BD000704770B50246002400230025002040F62F
:100BE0006A16B14200D100BFC1F3421501F01F03E4
:100BF000012606FA03F3012D02D19689334006E05F
:100C0000022D02D1168A334001E0968A33400C123D
:100C1000012606FA04F41688344013B10CB1012001
:100C200000E0002070BDF0B503460024002600253A
:100C3000002040F66A17B94200D100BF1846C1F340
:100C4000421401F01F06012707FA06F5012C01D115
:100C50000C3004E0022C01D1103000E014301AB145
:100C600007682F43076002E00768AF430760F0BDE5
:100C70002DE9F04786B005460E460024A24600BF87
:100C8000A1460027B08900B100BF2F462C8A4CF640
:100C9000FF700440F08804432C82AC894EF6F310B8
:100CA0000440B08831890843718908430443AC810A
:100CB000AC8A4FF6FF400440B0890443AC8201A8DF
:100CC000FFF77AFB1F48874202D1DDF810A001E050
:100CD000DDF80CA0A88900F4004040B10AEBCA007E
:100CE00000EB0A1031684900B0FBF1F807E00AEBAD
:100CF000CA0000EB0A1031688900B0FBF1F86420EB
:100D0000B8FBF0F004012009642101FB1089A889D7
:100D100000F4004040B1322000EBC900B0FBF1F01C
:100D200000F00700044308E0322000EB09106421C2
:100D3000B0FBF1F000F00F0004432C8106B0BDE8D9
:100D4000F08700000038014001468888C0F30800A1
:100D50007047C1F308028280704700BFFEE70000C1
:100D6000014A024900F013B8B10D00081400002038
:100D700002E008C8121F08C1002AFAD17047704764
:100D8000002001E001C1121F002AFBD170472DE9AC
:100D9000F04116460F460446002503E03946B047A9
:100DA000641C6D1C20780028F8D12846BDE8F0812D
:100DB00070B504460D46E1B20548FFF7CAFF00BF13
:100DC00080210348FFF7F8FE0028F9D0204670BDC7
:100DD00000380140FFF796FEFFF764FBFFF754FC75
:100DE00003A0FFF7BDFFFFF787FA00BFFEE7000093
:100DF000BFAABBFAB3F5CABCBBAFCDEAB3C90D0AF3
:100E000000000000240E0008000000201800000070
:100E1000700D00083C0E00081800002000040000BF
:100E2000800D000800000000010203040102030419
:0C0E300006070809020406080000000084
:0400000508000131BD
:00000001FF
